{
  "_format": "hh-sol-artifact-1",
  "contractName": "SampleContract",
  "sourceName": "contracts/SampleContract.sol",
  "abi": [
    {
      "inputs": [],
      "stateMutability": "nonpayable",
      "type": "constructor"
    },
    {
      "inputs": [],
      "name": "isEnabled",
      "outputs": [
        {
          "internalType": "bool",
          "name": "",
          "type": "bool"
        }
      ],
      "stateMutability": "view",
      "type": "function"
    },
    {
      "inputs": [],
      "name": "myData",
      "outputs": [
        {
          "internalType": "string",
          "name": "",
          "type": "string"
        }
      ],
      "stateMutability": "view",
      "type": "function"
    },
    {
      "inputs": [],
      "name": "myInt",
      "outputs": [
        {
          "internalType": "uint256",
          "name": "",
          "type": "uint256"
        }
      ],
      "stateMutability": "view",
      "type": "function"
    },
    {
      "inputs": [
        {
          "internalType": "string",
          "name": "_input",
          "type": "string"
        }
      ],
      "name": "setData",
      "outputs": [],
      "stateMutability": "nonpayable",
      "type": "function"
    },
    {
      "inputs": [],
      "name": "toggle",
      "outputs": [],
      "stateMutability": "nonpayable",
      "type": "function"
    }
  ],
  "bytecode": "0x6080604052600d6000553480156200001657600080fd5b506040518060400160405280600581526020017f68656c6c6f000000000000000000000000000000000000000000000000000000815250600190816200005d9190620002f9565b506001600260006101000a81548160ff021916908315150217905550620003e0565b600081519050919050565b7f4e487b7100000000000000000000000000000000000000000000000000000000600052604160045260246000fd5b7f4e487b7100000000000000000000000000000000000000000000000000000000600052602260045260246000fd5b600060028204905060018216806200010157607f821691505b602082108103620001175762000116620000b9565b5b50919050565b60008190508160005260206000209050919050565b60006020601f8301049050919050565b600082821b905092915050565b600060088302620001817fffffffffffffffffffffffffffffffffffffffffffffffffffffffffffffffff8262000142565b6200018d868362000142565b95508019841693508086168417925050509392505050565b6000819050919050565b6000819050919050565b6000620001da620001d4620001ce84620001a5565b620001af565b620001a5565b9050919050565b6000819050919050565b620001f683620001b9565b6200020e6200020582620001e1565b8484546200014f565b825550505050565b600090565b6200022562000216565b62000232818484620001eb565b505050565b5b818110156200025a576200024e6000826200021b565b60018101905062000238565b5050565b601f821115620002a95762000273816200011d565b6200027e8462000132565b810160208510156200028e578190505b620002a66200029d8562000132565b83018262000237565b50505b505050565b600082821c905092915050565b6000620002ce60001984600802620002ae565b1980831691505092915050565b6000620002e98383620002bb565b9150826002028217905092915050565b62000304826200007f565b67ffffffffffffffff81111562000320576200031f6200008a565b5b6200032c8254620000e8565b620003398282856200025e565b600060209050601f8311600181146200037157600084156200035c578287015190505b620003688582620002db565b865550620003d8565b601f19841662000381866200011d565b60005b82811015620003ab5784890151825560018201915060208501945060208101905062000384565b86831015620003cb5784890151620003c7601f891682620002bb565b8355505b6001600288020188555050505b505050505050565b61078480620003f06000396000f3fe608060405234801561001057600080fd5b50600436106100575760003560e01c80632bb141041461005c5780632cb777a61461007a57806340a3d2461461009857806347064d6a146100a25780636aa633b6146100be575b600080fd5b6100646100dc565b6040516100719190610252565b60405180910390f35b61008261016a565b60405161008f919061028d565b60405180910390f35b6100a0610170565b005b6100bc60048036038101906100b791906103f1565b61019c565b005b6100c66101af565b6040516100d39190610455565b60405180910390f35b600180546100e99061049f565b80601f01602080910402602001604051908101604052809291908181526020018280546101159061049f565b80156101625780601f1061013757610100808354040283529160200191610162565b820191906000526020600020905b81548152906001019060200180831161014557829003601f168201915b505050505081565b60005481565b600260009054906101000a900460ff1615600260006101000a81548160ff021916908315150217905550565b80600190816101ab919061067c565b5050565b600260009054906101000a900460ff1681565b600081519050919050565b600082825260208201905092915050565b60005b838110156101fc5780820151818401526020810190506101e1565b60008484015250505050565b6000601f19601f8301169050919050565b6000610224826101c2565b61022e81856101cd565b935061023e8185602086016101de565b61024781610208565b840191505092915050565b6000602082019050818103600083015261026c8184610219565b905092915050565b6000819050919050565b61028781610274565b82525050565b60006020820190506102a2600083018461027e565b92915050565b6000604051905090565b600080fd5b600080fd5b600080fd5b600080fd5b7f4e487b7100000000000000000000000000000000000000000000000000000000600052604160045260246000fd5b6102fe82610208565b810181811067ffffffffffffffff8211171561031d5761031c6102c6565b5b80604052505050565b60006103306102a8565b905061033c82826102f5565b919050565b600067ffffffffffffffff82111561035c5761035b6102c6565b5b61036582610208565b9050602081019050919050565b82818337600083830152505050565b600061039461038f84610341565b610326565b9050828152602081018484840111156103b0576103af6102c1565b5b6103bb848285610372565b509392505050565b600082601f8301126103d8576103d76102bc565b5b81356103e8848260208601610381565b91505092915050565b600060208284031215610407576104066102b2565b5b600082013567ffffffffffffffff811115610425576104246102b7565b5b610431848285016103c3565b91505092915050565b60008115159050919050565b61044f8161043a565b82525050565b600060208201905061046a6000830184610446565b92915050565b7f4e487b7100000000000000000000000000000000000000000000000000000000600052602260045260246000fd5b600060028204905060018216806104b757607f821691505b6020821081036104ca576104c9610470565b5b50919050565b60008190508160005260206000209050919050565b60006020601f8301049050919050565b600082821b905092915050565b6000600883026105327fffffffffffffffffffffffffffffffffffffffffffffffffffffffffffffffff826104f5565b61053c86836104f5565b95508019841693508086168417925050509392505050565b6000819050919050565b600061057961057461056f84610274565b610554565b610274565b9050919050565b6000819050919050565b6105938361055e565b6105a761059f82610580565b848454610502565b825550505050565b600090565b6105bc6105af565b6105c781848461058a565b505050565b5b818110156105eb576105e06000826105b4565b6001810190506105cd565b5050565b601f82111561063057610601816104d0565b61060a846104e5565b81016020851015610619578190505b61062d610625856104e5565b8301826105cc565b50505b505050565b600082821c905092915050565b600061065360001984600802610635565b1980831691505092915050565b600061066c8383610642565b9150826002028217905092915050565b610685826101c2565b67ffffffffffffffff81111561069e5761069d6102c6565b5b6106a8825461049f565b6106b38282856105ef565b600060209050601f8311600181146106e657600084156106d4578287015190505b6106de8582610660565b865550610746565b601f1984166106f4866104d0565b60005b8281101561071c578489015182556001820191506020850194506020810190506106f7565b868310156107395784890151610735601f891682610642565b8355505b6001600288020188555050505b50505050505056fea26469706673582212200eb3fd30523f43b110c4093aa0f0ba296ef1dec435a6caddb277a078c075ff0e64736f6c63430008110033",
  "linkReferences": {},
  "deployedLinkReferences": {}
}